{
  "abi": [
    {
      "anonymous": false,
      "inputs": [
        {
          "indexed": true,
          "internalType": "uint256",
          "name": "timestamp",
          "type": "uint256"
        },
        {
          "indexed": false,
          "internalType": "uint256",
          "name": "humidity",
          "type": "uint256"
        }
      ],
      "name": "HumidityThresholdExceeded",
      "type": "event"
    },
    {
      "anonymous": false,
      "inputs": [
        {
          "indexed": true,
          "internalType": "uint256",
          "name": "timestamp",
          "type": "uint256"
        },
        {
          "indexed": false,
          "internalType": "uint256",
          "name": "ldr",
          "type": "uint256"
        }
      ],
      "name": "LightThresholdExceeded",
      "type": "event"
    },
    {
      "anonymous": false,
      "inputs": [
        {
          "indexed": true,
          "internalType": "uint256",
          "name": "timestamp",
          "type": "uint256"
        },
        {
          "indexed": false,
          "internalType": "uint256",
          "name": "temperature",
          "type": "uint256"
        }
      ],
      "name": "TemperatureThresholdExceeded",
      "type": "event"
    },
    {
      "inputs": [
        {
          "internalType": "uint256",
          "name": "_temperature",
          "type": "uint256"
        },
        {
          "internalType": "uint256",
          "name": "_ldr",
          "type": "uint256"
        },
        {
          "internalType": "uint256",
          "name": "_humidity",
          "type": "uint256"
        }
      ],
      "name": "addData",
      "outputs": [],
      "stateMutability": "nonpayable",
      "type": "function"
    },
    {
      "inputs": [
        {
          "internalType": "uint256",
          "name": "",
          "type": "uint256"
        }
      ],
      "name": "dataPoints",
      "outputs": [
        {
          "internalType": "uint256",
          "name": "temperature",
          "type": "uint256"
        },
        {
          "internalType": "uint256",
          "name": "ldr",
          "type": "uint256"
        },
        {
          "internalType": "uint256",
          "name": "humidity",
          "type": "uint256"
        },
        {
          "internalType": "uint256",
          "name": "timestamp",
          "type": "uint256"
        }
      ],
      "stateMutability": "view",
      "type": "function"
    },
    {
      "inputs": [
        {
          "internalType": "uint256",
          "name": "_index",
          "type": "uint256"
        }
      ],
      "name": "getData",
      "outputs": [
        {
          "components": [
            {
              "internalType": "uint256",
              "name": "temperature",
              "type": "uint256"
            },
            {
              "internalType": "uint256",
              "name": "ldr",
              "type": "uint256"
            },
            {
              "internalType": "uint256",
              "name": "humidity",
              "type": "uint256"
            },
            {
              "internalType": "uint256",
              "name": "timestamp",
              "type": "uint256"
            }
          ],
          "internalType": "struct SensorData.DataPoint",
          "name": "",
          "type": "tuple"
        }
      ],
      "stateMutability": "view",
      "type": "function"
    },
    {
      "inputs": [],
      "name": "getDataCount",
      "outputs": [
        {
          "internalType": "uint256",
          "name": "",
          "type": "uint256"
        }
      ],
      "stateMutability": "view",
      "type": "function"
    }
  ],
  "bytecode": "608060405234801561001057600080fd5b5061047a806100206000396000f3fe608060405234801561001057600080fd5b506004361061004c5760003560e01c80630178fe3f146100515780637355a4241461007a578063a6782b4b1461008f578063b51a285a146100b2575b600080fd5b61006461005f366004610385565b6100c7565b60405161007191906103f5565b60405180910390f35b610082610162565b6040516100719190610420565b6100a261009d366004610385565b610168565b6040516100719493929190610429565b6100c56100c036600461039d565b6101a2565b005b6100cf61035d565b60005482106100f95760405162461bcd60e51b81526004016100f0906103c8565b60405180910390fd5b6000828154811061011a57634e487b7160e01b600052603260045260246000fd5b90600052602060002090600402016040518060800160405290816000820154815260200160018201548152602001600282015481526020016003820154815250509050919050565b60005490565b6000818154811061017857600080fd5b60009182526020909120600490910201805460018201546002830154600390930154919350919084565b604080516080810182528481526020810184815291810183815242606083019081526000805460018101825590805292517f290decd9548b62a8d60345a988386fc84ba6bc95484008f6362f93160ef3e56360049094029384015592517f290decd9548b62a8d60345a988386fc84ba6bc95484008f6362f93160ef3e564830155517f290decd9548b62a8d60345a988386fc84ba6bc95484008f6362f93160ef3e56582015590517f290decd9548b62a8d60345a988386fc84ba6bc95484008f6362f93160ef3e56690910155601e831015806102805750600a8311155b156102be57427f075af502c500337db95f211dc7a7ce5c7c80955e1e68a2b2694e7aabbc869724846040516102b59190610420565b60405180910390a25b605a8111806102cd5750601e81105b1561030b57427faa6393a81565402f0a6a55199df36cbbd498e39451a7867d126d6d0e97933d92826040516103029190610420565b60405180910390a25b605a82118061031a5750600a82105b1561035857427fb343577749b029128ca369106dd7b2179ae8dd883af8894b88e5bb6506827d528360405161034f9190610420565b60405180910390a25b505050565b6040518060800160405280600081526020016000815260200160008152602001600081525090565b600060208284031215610396578081fd5b5035919050565b6000806000606084860312156103b1578182fd5b505081359360208301359350604090920135919050565b602080825260139082015272496e646578206f7574206f6620626f756e647360681b604082015260600190565b8151815260208083015190820152604080830151908201526060918201519181019190915260800190565b90815260200190565b9384526020840192909252604083015260608201526080019056fea264697066735822122039c1f448bbf4837de77f7fd2feaab1efbea16eecb1be8f731afca51143051a1764736f6c63430008000033",
  "bytecodeSha1": "4a7944f7acf082f6f5231abc5deece19fea74925",
  "compiler": {
    "evm_version": "istanbul",
    "optimizer": {
      "enabled": true,
      "runs": 200
    },
    "version": "0.8.0+commit.c7dfd78e"
  },
  "contractName": "SensorData",
  "language": "Solidity",
  "natspec": {
    "kind": "dev",
    "methods": {},
    "version": 1
  },
  "opcodes": "PUSH1 0x80 PUSH1 0x40 MSTORE CALLVALUE DUP1 ISZERO PUSH2 0x10 JUMPI PUSH1 0x0 DUP1 REVERT JUMPDEST POP PUSH1 0x4 CALLDATASIZE LT PUSH2 0x4C JUMPI PUSH1 0x0 CALLDATALOAD PUSH1 0xE0 SHR DUP1 PUSH4 0x178FE3F EQ PUSH2 0x51 JUMPI DUP1 PUSH4 0x7355A424 EQ PUSH2 0x7A JUMPI DUP1 PUSH4 0xA6782B4B EQ PUSH2 0x8F JUMPI DUP1 PUSH4 0xB51A285A EQ PUSH2 0xB2 JUMPI JUMPDEST PUSH1 0x0 DUP1 REVERT JUMPDEST PUSH2 0x64 PUSH2 0x5F CALLDATASIZE PUSH1 0x4 PUSH2 0x385 JUMP JUMPDEST PUSH2 0xC7 JUMP JUMPDEST PUSH1 0x40 MLOAD PUSH2 0x71 SWAP2 SWAP1 PUSH2 0x3F5 JUMP JUMPDEST PUSH1 0x40 MLOAD DUP1 SWAP2 SUB SWAP1 RETURN JUMPDEST PUSH2 0x82 PUSH2 0x162 JUMP JUMPDEST PUSH1 0x40 MLOAD PUSH2 0x71 SWAP2 SWAP1 PUSH2 0x420 JUMP JUMPDEST PUSH2 0xA2 PUSH2 0x9D CALLDATASIZE PUSH1 0x4 PUSH2 0x385 JUMP JUMPDEST PUSH2 0x168 JUMP JUMPDEST PUSH1 0x40 MLOAD PUSH2 0x71 SWAP5 SWAP4 SWAP3 SWAP2 SWAP1 PUSH2 0x429 JUMP JUMPDEST PUSH2 0xC5 PUSH2 0xC0 CALLDATASIZE PUSH1 0x4 PUSH2 0x39D JUMP JUMPDEST PUSH2 0x1A2 JUMP JUMPDEST STOP JUMPDEST PUSH2 0xCF PUSH2 0x35D JUMP JUMPDEST PUSH1 0x0 SLOAD DUP3 LT PUSH2 0xF9 JUMPI PUSH1 0x40 MLOAD PUSH3 0x461BCD PUSH1 0xE5 SHL DUP2 MSTORE PUSH1 0x4 ADD PUSH2 0xF0 SWAP1 PUSH2 0x3C8 JUMP JUMPDEST PUSH1 0x40 MLOAD DUP1 SWAP2 SUB SWAP1 REVERT JUMPDEST PUSH1 0x0 DUP3 DUP2 SLOAD DUP2 LT PUSH2 0x11A JUMPI PUSH4 0x4E487B71 PUSH1 0xE0 SHL PUSH1 0x0 MSTORE PUSH1 0x32 PUSH1 0x4 MSTORE PUSH1 0x24 PUSH1 0x0 REVERT JUMPDEST SWAP1 PUSH1 0x0 MSTORE PUSH1 0x20 PUSH1 0x0 KECCAK256 SWAP1 PUSH1 0x4 MUL ADD PUSH1 0x40 MLOAD DUP1 PUSH1 0x80 ADD PUSH1 0x40 MSTORE SWAP1 DUP2 PUSH1 0x0 DUP3 ADD SLOAD DUP2 MSTORE PUSH1 0x20 ADD PUSH1 0x1 DUP3 ADD SLOAD DUP2 MSTORE PUSH1 0x20 ADD PUSH1 0x2 DUP3 ADD SLOAD DUP2 MSTORE PUSH1 0x20 ADD PUSH1 0x3 DUP3 ADD SLOAD DUP2 MSTORE POP POP SWAP1 POP SWAP2 SWAP1 POP JUMP JUMPDEST PUSH1 0x0 SLOAD SWAP1 JUMP JUMPDEST PUSH1 0x0 DUP2 DUP2 SLOAD DUP2 LT PUSH2 0x178 JUMPI PUSH1 0x0 DUP1 REVERT JUMPDEST PUSH1 0x0 SWAP2 DUP3 MSTORE PUSH1 0x20 SWAP1 SWAP2 KECCAK256 PUSH1 0x4 SWAP1 SWAP2 MUL ADD DUP1 SLOAD PUSH1 0x1 DUP3 ADD SLOAD PUSH1 0x2 DUP4 ADD SLOAD PUSH1 0x3 SWAP1 SWAP4 ADD SLOAD SWAP2 SWAP4 POP SWAP2 SWAP1 DUP5 JUMP JUMPDEST PUSH1 0x40 DUP1 MLOAD PUSH1 0x80 DUP2 ADD DUP3 MSTORE DUP5 DUP2 MSTORE PUSH1 0x20 DUP2 ADD DUP5 DUP2 MSTORE SWAP2 DUP2 ADD DUP4 DUP2 MSTORE TIMESTAMP PUSH1 0x60 DUP4 ADD SWAP1 DUP2 MSTORE PUSH1 0x0 DUP1 SLOAD PUSH1 0x1 DUP2 ADD DUP3 SSTORE SWAP1 DUP1 MSTORE SWAP3 MLOAD PUSH32 0x290DECD9548B62A8D60345A988386FC84BA6BC95484008F6362F93160EF3E563 PUSH1 0x4 SWAP1 SWAP5 MUL SWAP4 DUP5 ADD SSTORE SWAP3 MLOAD PUSH32 0x290DECD9548B62A8D60345A988386FC84BA6BC95484008F6362F93160EF3E564 DUP4 ADD SSTORE MLOAD PUSH32 0x290DECD9548B62A8D60345A988386FC84BA6BC95484008F6362F93160EF3E565 DUP3 ADD SSTORE SWAP1 MLOAD PUSH32 0x290DECD9548B62A8D60345A988386FC84BA6BC95484008F6362F93160EF3E566 SWAP1 SWAP2 ADD SSTORE PUSH1 0x1E DUP4 LT ISZERO DUP1 PUSH2 0x280 JUMPI POP PUSH1 0xA DUP4 GT ISZERO JUMPDEST ISZERO PUSH2 0x2BE JUMPI TIMESTAMP PUSH32 0x75AF502C500337DB95F211DC7A7CE5C7C80955E1E68A2B2694E7AABBC869724 DUP5 PUSH1 0x40 MLOAD PUSH2 0x2B5 SWAP2 SWAP1 PUSH2 0x420 JUMP JUMPDEST PUSH1 0x40 MLOAD DUP1 SWAP2 SUB SWAP1 LOG2 JUMPDEST PUSH1 0x5A DUP2 GT DUP1 PUSH2 0x2CD JUMPI POP PUSH1 0x1E DUP2 LT JUMPDEST ISZERO PUSH2 0x30B JUMPI TIMESTAMP PUSH32 0xAA6393A81565402F0A6A55199DF36CBBD498E39451A7867D126D6D0E97933D92 DUP3 PUSH1 0x40 MLOAD PUSH2 0x302 SWAP2 SWAP1 PUSH2 0x420 JUMP JUMPDEST PUSH1 0x40 MLOAD DUP1 SWAP2 SUB SWAP1 LOG2 JUMPDEST PUSH1 0x5A DUP3 GT DUP1 PUSH2 0x31A JUMPI POP PUSH1 0xA DUP3 LT JUMPDEST ISZERO PUSH2 0x358 JUMPI TIMESTAMP PUSH32 0xB343577749B029128CA369106DD7B2179AE8DD883AF8894B88E5BB6506827D52 DUP4 PUSH1 0x40 MLOAD PUSH2 0x34F SWAP2 SWAP1 PUSH2 0x420 JUMP JUMPDEST PUSH1 0x40 MLOAD DUP1 SWAP2 SUB SWAP1 LOG2 JUMPDEST POP POP POP JUMP JUMPDEST PUSH1 0x40 MLOAD DUP1 PUSH1 0x80 ADD PUSH1 0x40 MSTORE DUP1 PUSH1 0x0 DUP2 MSTORE PUSH1 0x20 ADD PUSH1 0x0 DUP2 MSTORE PUSH1 0x20 ADD PUSH1 0x0 DUP2 MSTORE PUSH1 0x20 ADD PUSH1 0x0 DUP2 MSTORE POP SWAP1 JUMP JUMPDEST PUSH1 0x0 PUSH1 0x20 DUP3 DUP5 SUB SLT ISZERO PUSH2 0x396 JUMPI DUP1 DUP2 REVERT JUMPDEST POP CALLDATALOAD SWAP2 SWAP1 POP JUMP JUMPDEST PUSH1 0x0 DUP1 PUSH1 0x0 PUSH1 0x60 DUP5 DUP7 SUB SLT ISZERO PUSH2 0x3B1 JUMPI DUP2 DUP3 REVERT JUMPDEST POP POP DUP2 CALLDATALOAD SWAP4 PUSH1 0x20 DUP4 ADD CALLDATALOAD SWAP4 POP PUSH1 0x40 SWAP1 SWAP3 ADD CALLDATALOAD SWAP2 SWAP1 POP JUMP JUMPDEST PUSH1 0x20 DUP1 DUP3 MSTORE PUSH1 0x13 SWAP1 DUP3 ADD MSTORE PUSH19 0x496E646578206F7574206F6620626F756E6473 PUSH1 0x68 SHL PUSH1 0x40 DUP3 ADD MSTORE PUSH1 0x60 ADD SWAP1 JUMP JUMPDEST DUP2 MLOAD DUP2 MSTORE PUSH1 0x20 DUP1 DUP4 ADD MLOAD SWAP1 DUP3 ADD MSTORE PUSH1 0x40 DUP1 DUP4 ADD MLOAD SWAP1 DUP3 ADD MSTORE PUSH1 0x60 SWAP2 DUP3 ADD MLOAD SWAP2 DUP2 ADD SWAP2 SWAP1 SWAP2 MSTORE PUSH1 0x80 ADD SWAP1 JUMP JUMPDEST SWAP1 DUP2 MSTORE PUSH1 0x20 ADD SWAP1 JUMP JUMPDEST SWAP4 DUP5 MSTORE PUSH1 0x20 DUP5 ADD SWAP3 SWAP1 SWAP3 MSTORE PUSH1 0x40 DUP4 ADD MSTORE PUSH1 0x60 DUP3 ADD MSTORE PUSH1 0x80 ADD SWAP1 JUMP INVALID LOG2 PUSH5 0x6970667358 0x22 SLT KECCAK256 CODECOPY 0xC1 DELEGATECALL 0x48 0xBB DELEGATECALL DUP4 PUSH30 0xE77F7FD2FEAAB1EFBEA16EECB1BE8F731AFCA51143051A1764736F6C6343 STOP ADDMOD STOP STOP CALLER ",
  "sha1": "9c8e54e75adccb7dc5c399346d9f73bd996fb180",
  "source": "// SPDX-License-Identifier: MIT\npragma solidity ^0.8.0;\n\ncontract SensorData {\n    uint256 private constant TEMPERATURE_THRESHOLD_MAX = 30;\n    uint256 private constant TEMPERATURE_THRESHOLD_MIN = 10;\n\n    uint256 private constant HUMIDITY_THRESHOLD_MAX = 90;\n    uint256 private constant HUMIDITY_THRESHOLD_MIN = 30;\n\n    uint256 private constant LIGHT_THRESHOLD_MAX = 90;\n    uint256 private constant LIGHT_THRESHOLD_MIN = 10;\n    \n    struct DataPoint {\n        uint256 temperature;\n        uint256 ldr;\n        uint256 humidity;\n        uint256 timestamp;\n    }\n\n    DataPoint[] public dataPoints;\n\n    function addData(uint256 _temperature, uint256 _ldr, uint256 _humidity) public {\n        dataPoints.push(DataPoint(_temperature, _ldr, _humidity, block.timestamp));\n    \n        // Check temperature threshold\n        if (_temperature >= TEMPERATURE_THRESHOLD_MAX || _temperature <= TEMPERATURE_THRESHOLD_MIN) {\n            emit TemperatureThresholdExceeded(block.timestamp, _temperature);\n        }\n\n        // Check humidity threshold\n        if (_humidity > HUMIDITY_THRESHOLD_MAX || _humidity < HUMIDITY_THRESHOLD_MIN) {\n            emit HumidityThresholdExceeded(block.timestamp, _humidity);\n        }\n\n        // Check light threshold\n        if (_ldr > LIGHT_THRESHOLD_MAX || _ldr < LIGHT_THRESHOLD_MIN) {\n            emit LightThresholdExceeded(block.timestamp, _ldr);\n        }\n    }\n\n    function getDataCount() public view returns (uint256) {\n        return dataPoints.length;\n    }\n\n    function getData(uint256 _index) public view returns (DataPoint memory) {\n        require(_index < dataPoints.length, \"Index out of bounds\");\n        return dataPoints[_index];\n    }\n\n    // Events\n    event TemperatureThresholdExceeded(uint256 indexed timestamp, uint256 temperature);\n    event HumidityThresholdExceeded(uint256 indexed timestamp, uint256 humidity);\n    event LightThresholdExceeded(uint256 indexed timestamp, uint256 ldr);\n}\n",
  "sourcePath": "contracts/CargoData.sol",
  "type": "contract"
}